{
  "contractName": "Multi",
  "abi": [
    {
      "constant": true,
      "inputs": [],
      "name": "multi",
      "outputs": [
        {
          "name": "multi",
          "type": "uint256"
        }
      ],
      "payable": false,
      "stateMutability": "view",
      "type": "function"
    }
  ],
  "bytecode": "0x606060405260046000556003600155600280553415601c57600080fd5b60ab8061002a6000396000f300606060405260043610603f576000357c0100000000000000000000000000000000000000000000000000000000900463ffffffff1680631b8f5d50146044575b600080fd5b3415604e57600080fd5b6054606a565b6040518082815260200191505060405180910390f35b600060025460015460005402029050809050905600a165627a7a7230582034a8858561fca788811d82805ba68ce8621395302571a13a48c56c4f6e596f750029",
  "source": "pragma solidity ^0.4.18;\r\n\r\ncontract Multi {\r\n\tuint a = 4;\r\n\tuint b = 3;\r\n\tuint c = 2;\r\n\tfunction multi() constant returns(uint multi) {\r\n\t\tmulti = a * b * c;\r\n\t\treturn multi;\r\n\t}\r\n}\r\n",
  "sourcePath": "C:\\Users\\Дима\\SumandMulti\\contracts\\test2.sol",
  "compiler": {
    "name": "solc",
    "version": "0.4.18+commit.9cf6e910.Emscripten.clang"
  },
  "schemaVersion": "1.0.1",
  "updatedAt": "2017-12-15T13:03:27.267Z"
}